:020000040800F2
:1000000000000820F9260008290500082B05000833
:100010002D0500082F05000831050008000000002C
:100020000000000000000000000000003305000890
:1000300035050008000000003705000839050008F4
:1000400049270008492700084927000849270008D0
:1000500049270008492700084927000849270008C0
:1000600049270008492700084927000849270008B0
:1000700049270008492700084927000849270008A0
:100080004927000849270008492700084927000890
:100090004927000849270008492700084927000880
:1000A0004927000849270008492700084927000870
:1000B0004927000849270008492700084927000860
:1000C0004927000849270008492700084927000850
:1000D0004927000849270008492700084927000840
:1000E0004927000849270008492700084927000830
:1000F0004927000849270008492700084927000820
:10010000492700084927000849270008492700080F
:1001100049270008492700084927000849270008FF
:1001200049270008492700084927000849270008EF
:1001300049270008492700084927000849270008DF
:1001400049270008492700084927000849270008CF
:1001500049270008492700084927000849270008BF
:1001600049270008492700084927000849270008AF
:100170004927000849270008492700080000000017
:10018000492700084927000849270008492700088F
:10019000492700084927000849270008492700087F
:1001A000492700084927000849270008492700086F
:1001B000492700084927000849270008492700085F
:1001C00049270008492700080000000049270008C7
:1001D000492700084927000849270008492700083F
:1001E000492700084927000849270008492700082F
:0801F000492700084927000817
:1001F80053B94AB9002908BF00281CBF4FF0FF3186
:100208004FF0FF3000F00CB8ADF1080C6DE904CEEA
:1002180002F0C4FADDF804E0DDE9022304B0704717
:10022800704700BF0348044B834202D0034B03B11D
:10023800184770470C0000200C0000200000000048
:1002480005480649091A891001EBD171491002D0F5
:10025800034B03B1184770470C0000200C00002026
:100268000000000010B5064C237843B9FFF7DAFF09
:10027800044B13B10448AFF300800123237010BD71
:100288000C00002000000000742A000808B5054B87
:100298001BB105490548AFF30080BDE80840FFF7EA
:1002A800CFBF00BF0000000010000020742A000823
:1002B800F0B58DB000240794089409940A940B941F
:1002C800354B1A6B42F004021A631A6B02F00402EF
:1002D8000192019A1A6B42F080021A631A6B02F0BB
:1002E80080020292029A1A6B42F001021A631A6B98
:1002F80002F001020392039A1A6B42F002021A6397
:100308001A6B02F002020492049A1A6B42F0080275
:100318001A631A6B02F008020592059A1A6B42F0EA
:1003280040021A631B6B03F040030693069B1B4FA6
:10033800224644F28101384601F012FC184D22464B
:100348004021284601F00CFC4FF400530793154B4D
:100358000893099407A9144801F014FB44F2810397
:1003680007930126089609940A9407A9384601F0CC
:1003780009FB40230793089609940A9407A928467D
:1003880001F000FB802307930894099407A92846E5
:1003980001F0F8FA0DB0F0BD003802400004024048
:1003A80000180240000011100008024008B50E486D
:1003B8000E4B0360012343600023038242691370DC
:1003C8004269802151704269E12191704269D3707C
:1003D80042691371426953718361C3614FF4000329
:1003E800036200F03BFB08BDAC0400200080024023
:1003F80008B50948094B03604FF4E1334360002313
:100408008360C36003610C2242618361C36103623C
:10041800436201F0FEFE08BD2800002000480040AD
:1004280008B50A484FF0A043036006234360022240
:10043800C2600023036182610122C26103624362D8
:10044800C262036301F016FF08BD00BFA8000020C8
:1004580030B5B9B0342200212BA802F097F9002456
:1004680026942794289429942A949022214602A815
:1004780002F08CF901F07AFB1F4B1A6C42F08052A3
:100488001A641B6C03F080530093009B1B4A13688B
:1004980023F4404343F480431360136803F4404358
:1004A8000193019B01232B934FF4A0232C93022546
:1004B80031954FF4800332930423339360223492AE
:1004C800359536932BA800F0F3FB01F057FB0F236B
:1004D8002693279528944FF4805329932A9403212F
:1004E80026A800F071FE064B02931594219402A8E9
:1004F80000F046FF39B030BD0038024000700040BF
:100508000001200008B501F09DFBFFF7A1FFFFF7F0
:10051800CFFEFFF74BFFFFF76BFFFFF781FFFEE70B
:100528007047FEE7FEE7FEE7FEE770477047704753
:1005380008B501F093FB08BD82B00A4B1A6C42F073
:1005480080521A641A6C02F080520092009A5A6C17
:1005580042F480425A645B6C03F480430193019B2C
:1005680002B0704700380240F0B58DB00023079301
:10057800089309930A930B9302683A4B9A4201D065
:100588000DB0F0BDA3F590431A6B42F000721A63E8
:100598001A6B02F000720092009A1A6B42F08062A5
:1005A8001A631A6B02F080620192019A1A6B42F088
:1005B80000621A631A6B02F000620292029A1A6BC6
:1005C80042F004021A631A6B02F004020392039ABF
:1005D8001A6B42F001021A631A6B02F001020492CC
:1005E800049A1A6B42F002021A631A6B02F00202B2
:1005F8000592059A1A6B42F040021A631B6B03F0CE
:1006080040030693069B3223079302260896032588
:100618000A950B240B9407A9134801F0B3F9862314
:1006280007930896002709970A950B9407A90F487E
:1006380001F0A8F94FF400530793089609970A9513
:100648000B9407A90A4801F09DF94FF4205307932A
:10065800089609970A950B9407A9064801F092F99C
:100668008EE700BF00800240000802400000024000
:10067800000402400018024000B589B0002303932B
:1006880004930593069307930268144B9A4202D089
:1006980009B05DF804FB03F5F8331A6C42F48022C4
:1006A8001A641A6C02F480220192019A1A6B42F0C1
:1006B80008021A631B6B03F008030293029B4FF4B2
:1006C800407303930223049303230693072307939A
:1006D80003A9034801F056F9DAE700BF00480040D3
:1006E800000C024030B589B00023039304930593AE
:1006F800069307930368B3F1A04F01D009B030BD4A
:100708001A4C236B43F001032363236B03F00103AB
:100718000093009B4FF4E8530393022304930323AD
:1007280006930A230793124D03A9284601F02AF9D4
:100738004FF40073039300230493059303A92846F9
:1007480001F020F9636B43F080036363636B03F08C
:1007580080030193019B636C43F480436364636C7F
:1007680003F480430293029BC8E700BF00380240AD
:10077800000002400649CB6823F4E0631B041B0C0D
:10078800000200F4E0600343024A1A43CA6070475B
:1007980000ED00E00000FA0530B4154BDB68C3F348
:1007A8000223C3F10704042C28BF04241D1D062DB1
:1007B80001D9033B00E000234FF0FF3505FA04F4AC
:1007C80021EA0401994005FA03F322EA03031943D5
:1007D800002805DB0901C9B2064B195430BC704723
:1007E80000F00F000901C9B2034B1954F6E700BF26
:1007F80000ED00E000E400E014ED00E00138B0F1A5
:10080800807F0AD2064B5860064AF02182F82310EE
:100818000020986007221A6070470120704700BFC7
:1008280010E000E000ED00E05079137943EA00237E
:1008380007480B50D07893781B0443EA006350783C
:1008480043EA002312781343024A8B50704700BFD3
:10085800408002404480024070B59EB0044629B1F1
:100868004FF40063C3604FF480438360E369002B57
:1008780068D14FF48063079321680B68374A1A40A0
:10088800A368E06803430798034343F400731343E2
:100898000B6023681D68012001F0F2F923681D60D0
:1008A800236840225A6023685D68012001F0E8F956
:1008B80023685D60236800259D602368DD602268E9
:1008C800936923F0BE031B041B0C43F08003936160
:1008D80023689E69012001F0D3F923689E6123688B
:1008E800DD612368DD69012001F0CAF92368DD6153
:1008F800216841F218054B59194A1A40194B1343FC
:100908004B5123685E59012001F0BAF923685E5102
:10091800236803F58053144A1A60236803F580534B
:100928001D68012001F0ACF9236803F580531D60B0
:10093800A369012B09D0626900212046FFF774FFE3
:100948001EB070BD0023079396E7216841F21C0290
:100958008858064B03438B50EDE700BF0F8120FFFB
:10096800233FDEF8040020028020C102400001007D
:10097800F8B590F84430DBB2822B33D016460546E2
:10098800822380F844300268136903F01C03048A48
:10099800E402A4B22343890101F4F8641C4344F03F
:1009A8000104146101F066F9074614F0010F10D034
:1009B80001F060F9C01BB0F5803F02D22B681C69BA
:1009C800F3E7012385F84430002385F845300320F8
:1009D80007E02B685B699BB23360012385F84430DC
:1009E8000020F8BD0220FCE790F84430DBB2422B2F
:1009F80032D070B50546422380F844300068036958
:100A080003F01C032C8AE402A4B22343890101F4F5
:100A1800F8641C4344F0030492B242612B681C61E1
:100A280001F028F9064614F0010F10D001F022F960
:100A3800801BB0F5803F02D22B681C69F3E70123C5
:100A480085F84430002385F84530032003E001236E
:100A580085F84430002070BD0220704770B582B020
:100A680000230193002800F00C81044690F84430DC
:100A7800002B32D0844B5A6C42F480425A645B6C2F
:100A880003F480430093009B804B5A6822F40002D1
:100A98005A605A68216A0A435A60236803F58053EA
:100AA8001A6842F001021A6001F0E4F8054623686A
:100AB80003F58052126812F0010F13D001F0DAF832
:100AC800401BB0F5FA7FF2D9032584F8445000237F
:100AD80084F84530284602B070BD80F84530FFF7ED
:100AE80043FDC7E71D6925F01C0500F023FC684B92
:100AF8000344684A934255D845F0080523681D61A8
:100B08004FF4004200212046FFF76EFF05460028FB
:100B180060D1FF2001F0B4F86368002B00F09180E9
:100B280001F0A8F8064601AA01212046FFF720FF98
:100B380001F0A0F8801B41F28833984252D8019BFB
:100B480013F0040FEFD04FF4805200212046FFF736
:100B58004BFF002852D101F08DF8064601AA012169
:100B68002046FFF705FF01F085F8801B41F2883326
:100B780098424BD8019B13F0200FEFD001AA1F21F8
:100B88002046FFF7F5FE00284CD1019B13F0100F0B
:100B980050D04FF40062E26013F0040F4DD00023F0
:100BA800A3605EE03C4B03443C4A934202D845F0C4
:100BB8000C05A3E73A4B03443A4A93429ED93A4B71
:100BC80003443A4A934202D845F0040596E745F0B3
:100BD800100593E701212046FFF73EFE012584F822
:100BE800445077E701212046FFF736FE012384F8B9
:100BF8004430002384F8453003256BE70121204663
:100C0800FFF72AFE012584F8445063E701212046B6
:100C1800FFF722FE012384F84430002384F845308E
:100C2800032557E701212046FFF716FE012584F822
:100C380044504FE70022E260AEE74FF48043A360E0
:100C48000FE0E268C2F3CF02A368C3F34F031A436D
:100C580000212046FFF7C8FE58B940F6FF7001F0A2
:100C68000FF800212046FFF7F7FD012384F84430F0
:100C780030E701212046FFF7EFFD012584F84450B5
:100C880028E7012526E700BF003802400038014068
:100C980000D3CEFEBFE1E40040F1E9FD3F787D01DD
:100CA80000796CFCFF596202001F0AFA7FF0FA0211
:100CB800002800F0068270B582B00446036813F07D
:100CC800010F29D0A74B9B6803F00C03042B1AD003
:100CD800A44B9B6803F00C03082B0FD06368B3F593
:100CE800803F40D0002B54D19E4B1A6822F48032AA
:100CF8001A601A6822F480221A6039E0994B5B68FE
:100D080013F4800FEAD0974B1B6813F4003F03D00D
:100D18006368002B00F0D781236813F0020F74D0AA
:100D2800904B9B6813F00C0F5ED08E4B9B6803F0C2
:100D38000C03082B53D0E368002B00F08980894A04
:100D4800136843F00103136000F094FF0546854BD8
:100D58001B6813F0020F72D100F08CFF401B0228B1
:100D6800F5D90320B4E17F4A136843F48033136054
:100D780063682BB300F07EFF05467A4B1B6813F4BB
:100D8800003FC9D100F076FF401B6428F5D9032045
:100D98009EE1B3F5A02F09D0724B1A6822F4803275
:100DA8001A601A6822F480221A60E1E76D4B1A680B
:100DB80042F480221A601A6842F480321A60D7E737
:100DC80000F058FF0546674B1B6813F4003FA3D09B
:100DD80000F050FF401B6428F5D9032078E1614BEF
:100DE8005B6813F4800FA6D15E4B1B6813F0020FEB
:100DF80003D0E368012B40F068815A4A136823F056
:100E0800F803216943EAC1031360236813F0080F4C
:100E180046D0636983B3534A536F43F00103536762
:100E280000F028FF05464F4B5B6F13F0020F37D1D8
:100E380000F020FF401B0228F5D9032048E1494A69
:100E4800136823F0F803216943EAC1031360DCE760
:100E5800444A136823F00103136000F00BFF0546B2
:100E6800404B1B6813F0020FCFD000F003FF401B6C
:100E78000228F5D903202BE13A4A536F23F00103E6
:100E8800536700F0F7FE0546364B5B6F13F0020F11
:100E980006D000F0EFFE401B0228F5D9032017E129
:100EA800236813F0040F7DD02E4B1B6C13F0805F6A
:100EB8001ED12C4B1A6C42F080521A641B6C03F042
:100EC80080530193019B0125274B1B6813F4807FF6
:100ED80010D0A368012B21D0002B37D1214B1A6FDA
:100EE80022F001021A671A6F22F004021A671AE048
:100EF8000025E9E71C4A136843F48073136000F087
:100F0800B9FE0646184B1B6813F4807FE1D100F048
:100F1800B1FE801B6428F5D90320D9E0114A136F6C
:100F280043F001031367A36853B300F0A3FE06461A
:100F38000C4B1B6F13F0020F33D100F09BFE801B8C
:100F480041F288339842F3D90320C1E0052B0DD034
:100F5800044B1A6F22F001021A671A6F22F004027A
:100F68001A67E0E70038024000700040604B1A6FD3
:100F780042F004021A671A6F42F001021A67D2E7B8
:100F880000F078FE06465A4B1B6F13F0020F08D08C
:100F980000F070FE801B41F288339842F3D9032099
:100FA80096E0FDB9A369002B00F09180504A926841
:100FB80002F00C02082A59D0022B19D04C4A1368A7
:100FC80023F08073136000F055FE0446484B1B68FD
:100FD80013F0007F48D000F04DFE001B0228F5D921
:100FE800032075E0424A136C23F080531364D9E759
:100FF8003F4A136823F08073136000F03BFE0546F8
:101008003B4B1B6813F0007F06D000F033FE401BFB
:101018000228F5D903205BE0E369226A1343626A78
:1010280043EA8213A26A5208013A43EA0243E26A97
:1010380043EA0263226B43EA02732D4A5360136842
:1010480043F08073136000F015FE0446284B1B68BC
:1010580013F0007F06D100F00DFE001B0228F5D921
:10106800032035E0002033E0002031E0204A5268B8
:10107800012B2FD002F48003E1698B422CD102F0BE
:101088003F03216A8B4229D1616A47F6C073134036
:10109800B3EB811F24D102F44031A36A5B08013B02
:1010A800B1EB034F1ED102F07063E16AB3EB016F3D
:1010B8001AD102F0E042236BB2EB037F16D1002075
:1010C80006E001207047012002E0012000E0002036
:1010D80002B070BD0120FBE70120F9E70120F7E726
:1010E8000120F5E70120F3E70120F1E70120EFE710
:1010F80000380240314B9B6803F00C03042B58D096
:10110800082B58D170B52D4B5A6802F03F025B6826
:1011180013F4800F2AD0294B5868C0F3881005466D
:10112800002643011B1A66EB0604A10141EA9361FC
:101138009801C01A61EB0401CB0043EA5073C40064
:101148001946601946EB01014B0243EAD0534402A9
:10115800204619463346FFF74BF8184B5B68C3F334
:10116800014301335B00B0FBF3F070BD134B5868CB
:10117800C0F388100546002643011B1A66EB0604D7
:10118800A10141EA93619801C01A61EB0401CB0007
:1011980043EA5073C4001946601946EB01018B02FB
:1011A80043EA90538402204619463346FFF720F855
:1011B800D3E7034870470348704700BF0038024030
:1011C80000127A000024F400002800F0A08070B516
:1011D8000446534B1B6803F00F038B420BD2504A53
:1011E800136823F00F030B431360136803F00F0316
:1011F8008B4240F08E80236813F0020F17D013F053
:10120800040F04D0474A936843F4E053936023687B
:1012180013F0080F04D0434A936843F46043936083
:10122800404A936823F0F003A068034393600D4697
:10123800236813F0010F31D06368012B20D0022BF3
:1012480025D0384A126812F0020F64D035498A68EE
:1012580022F0030213438B6000F00CFD0646314B6D
:101268009B6803F00C036268B3EB820F16D000F0A2
:1012780001FD801B41F288339842F0D9032045E0F4
:10128800284A126812F4003FE0D101203EE0254AC6
:10129800126812F0007FD9D1012037E0204B1B687B
:1012A80003F00F03AB420AD91D4A136823F00F035A
:1012B8002B431360136803F00F03AB422DD123684F
:1012C80013F0040F06D0174A936823F4E053E1683B
:1012D8000B439360236813F0080F07D0114A9368F3
:1012E80023F46043216943EAC1039360FFF702FFD7
:1012F8000C4B9B68C3F303130B4AD35CD8400B4BCE
:1013080018600B4B186800F077FC002070BD0120B6
:1013180070470120FAE70120F8E70120F6E700BF4F
:10132800003C0240003802408C2A000808000020D7
:1013380004000020014B1868704700BF0800002017
:1013480008B5FFF7F7FF044B9B68C3F38223034AF2
:10135800D35CD84008BD00BF003802409C2A000872
:1013680008B5FFF7E7FF044B9B68C3F34233034A12
:10137800D35CD84008BD00BF003802409C2A000852
:10138800F0B583B00446036813F0010F0CD0B54BD9
:101398009A6822F400029A609A68416B0A439A603C
:1013A800436BC3B1002700E00027236813F4002F24
:1013B80015D0AC4AD2F88C3023F44013E16B0B43C0
:1013C800C2F88C30E36BB3F5801F06D0002B00F019
:1013D8004581002504E00127E7E70127F6E7002516
:1013E800236813F4801F0FD09E4AD2F88C3023F460
:1013F8004003216C0B43C2F88C30236CB3F5800F8B
:1014080000F02E8103B90125236813F0807F00D0F6
:10141800012713F0200F40F02781236813F0100FE5
:101428000CD0904BD3F88C2022F08072C3F88C201B
:10143800D3F88C20A16B0A43C3F88C20236813F4DB
:10144800804F08D0874AD2F8903023F44033616E39
:101458000B43C2F89030236813F4004F08D0814A38
:10146800D2F8903023F44023A16E0B43C2F8903099
:10147800236813F4803F08D07A4AD2F8903023F4D6
:101488004013E16E0B43C2F89030236813F4003F19
:1014980008D0744AD2F8903023F44003216F0B43EC
:1014A800C2F89030236813F0400F08D06D4AD2F884
:1014B800903023F00303616C0B43C2F8903023682B
:1014C80013F0800F08D0674AD2F8903023F00C034D
:1014D800A16C0B43C2F89030236813F4807F08D0C6
:1014E800604AD2F8903023F03003E16C0B43C2F825
:1014F8009030236813F4007F08D05A4AD2F890300D
:1015080023F0C003216D0B43C2F89030236813F415
:10151800806F08D0534AD2F8903023F44073616D3D
:101528000B43C2F89030236813F4006F08D04D4A7B
:10153800D2F8903023F44063A16D0B43C2F8903089
:10154800236813F4805F08D0464AD2F8903023F419
:101558004053E16D0B43C2F89030236813F4005FE9
:1015680008D0404AD2F8903023F44043216E0B4310
:10157800C2F89030236813F4800F08D0394AD2F8A3
:10158800903023F08063A16F0B43C2F8903023683A
:1015980013F4001F0DD0334AD2F8903023F00063C3
:1015A800E16F0B43C2F89030E36FB3F1006F00F0C6
:1015B800C180236813F0080F00D0012513F4802F91
:1015C80008D0284AD2F8903023F04073616F0B435B
:1015D800C2F89030236813F4000F09D0214AD2F8DA
:1015E800903023F08053D4F880100B43C2F8903029
:1015F800236813F0806F09D01A4AD2F8903023F08C
:101608000053D4F884100B43C2F89030236813F0C9
:10161800006F09D0134AD2F88C3023F00073D4F845
:1016280088100B43C2F88C30236813F0805F09D010
:101638000C4AD2F88C3023F08063D4F88C100B431A
:10164800C2F88C30002F77D12368B3F1007F73D0B4
:10165800002D40F00481002003B0F0BD0125BFE655
:101668000127CFE600380240B74B1A6C42F080528F
:101678001A641B6C03F080530193019BB34A1368EF
:1016880043F48073136000F0F5FA0646AF4B1B680D
:1016980013F4807F06D100F0EDFA801B6428F5D999
:1016A8000320D9E7A84B1B6F13F4407315D0226BA6
:1016B80002F440729A4210D0A34B1A6F22F440727F
:1016C800196F41F480311967196F21F48031196756
:1016D8001A671B6F13F0010F12D1236B03F44072CA
:1016E800B2F5407F1DD0984A936823F4F8139360AD
:1016F80095490B6F226BC2F30B0213430B678CE601
:1017080000F0B8FA0646904B1B6F13F0020FE4D1B5
:1017180000F0B0FA801B41F288339842F3D90320D5
:101728009AE78948826822F4F812894919400A43DD
:101738008260DDE701253CE7834A136823F0806374
:10174800136000F097FA06467F4B1B6813F0006F92
:1017580006D000F08FFA801B6428F5D903207BE7B8
:10176800236813F0010F13D0636B8BB9764AD2F854
:101778008430D2F88410606803F4403343EA80135D
:1017880001F070610B43A16843EA0173C2F8843029
:10179800236813F4002F03D0E26BB2F5801F06D044
:1017A80013F4801F1ED0236CB3F5800F1AD1664A3C
:1017B800D2F88430D2F88410606803F4403343EAE6
:1017C8008013E06843EA006301F0E0410B43C2F88C
:1017D8008430D2F88C3023F01F03616A01390B433F
:1017E800C2F88C30236813F0807F11D0564AD2F8A3
:1017F8008400D2F88410666823691B0443EA8613C0
:1018080000F07060034301F0E0410B43C2F88430FC
:10181800236813F0007F0DD0626823691B0443EA34
:101828008213E26843EA0263A26843EA0273464A03
:10183800C2F88430444A136843F08063136000F0B0
:1018480019FA0646404B1B6813F0006F7FF400AF8F
:1018580000F010FA801B6428F4D90320FCE63A4A09
:10186800136823F08053136000F004FA0546364BE2
:101878001B6813F0005F06D000F0FCF9401B6428D9
:10188800F5D90320E8E6236813F4002F01D0E26BB2
:1018980022B113F4801F1DD0236CDBB92A4AD2F879
:1018A8008830D2F88810606903F4403343EA801323
:1018B800A06943EA006301F0E0410B43C2F88830B5
:1018C800D2F88C3023F4F853A16A013943EA012392
:1018D800C2F88C30236813F4001F03D0E36FB3F110
:1018E800006F37D0236813F0080F19D0164AD2F8C2
:1018F8008810D2F88830606903F4403343EA8013D3
:1019080001F070610B43E16943EA0173C2F8883062
:10191800D2F88C3023F44033E16A0B43C2F88C30A0
:10192800094A136843F08053136000F0A3F9044692
:10193800054B1B6813F0005F1FD100F09BF9001BDB
:101948006428F5D9032087E600380240007000407B
:10195800FFFCFF0F0A4AD2F88800D2F888106569A0
:10196800236A1B0443EA851300F07060034301F007
:10197800E0410B43C2F88830B4E700206CE600BFB2
:101988000038024000230F2B00F2E180F0B583B04D
:1019980039E0092200E00022B2403A4302346C4E9A
:1019A80046F824206B4A1468EA4302EA04064F68A2
:1019B80017F4803F01D045EA0406664C2660646847
:1019C80002EA04064F6817F4003F01D045EA04060E
:1019D800604C6660A46802EA04064F6817F4801F2A
:1019E80001D045EA04065B4CA660E46822404E68D4
:1019F80016F4001F01D045EA0402564CE260013398
:101A08000F2B00F2A28001229A400C6804EA02051A
:101A1800AA42F4D14C68661E112C18BF012E01D9B8
:101A2800122C12D186685F000324BC4026EA040603
:101A3800CC68BC4034438460466826EA02064C6899
:101A4800C4F300129A4032434260C2685F00032622
:101A5800BE40F64332408C68BC401443C4604A68B8
:101A6800122A18BF022A13D1DC08083450F824E0DF
:101A780003F007024FEA820C0F2202FA0CF22EEA58
:101A8800020E0A6902FA0CF242EA0E0240F8242019
:101A9800026816404A6802F00302BA403243026004
:101AA8004A6812F0805FAAD02B4A546C44F48044F0
:101AB8005464526C02F480420192019A9C08A61C5C
:101AC800234A52F8267003F0030296000F22B24010
:101AD80027EA0207214A90423FF45DAF02F580628F
:101AE800904222D002F58062904220D002F58062B6
:101AF80090421ED002F5806290421CD002F58062AE
:101B080090421AD002F58062904218D002F58062A5
:101B1800904216D002F58062904214D002F580629D
:101B280090423FF436AF0A2236E7012234E7022218
:101B380032E7032230E704222EE705222CE70622AB
:101B48002AE7072228E7082226E703B0F0BD7047F6
:101B580000380140003C01400038024000000240CB
:101B68000AB181617047090481617047024A1368AC
:101B780043F48073136070470070004010B582B062
:101B88001B4B1A6C42F080521A641B6C03F0805392
:101B98000193019B174A136843F48033136000F0E4
:101BA80069F80446134B5B6813F4803F08D100F0D2
:101BB80061F8001BB0F57A7FF4D9032002B010BD9C
:101BC8000C4A136843F40033136000F053F80446DA
:101BD800084B5B6813F4003F07D100F04BF8001B7B
:101BE800B0F57A7FF4D90320E8E70020E6E700BFE4
:101BF800003802400070004010B504460E4B1878BB
:101C08004FF47A73B3FBF0F30C4A1068B0FBF3F0AF
:101C1800FEF7F4FD68B90F2C01D901200AE0002273
:101C280021464FF0FF30FEF7B7FD054B1C60002042
:101C380000E0012010BD00BF0000002008000020C7
:101C48000400002008B50320FEF794FD0020FFF7EC
:101C5800D3FFFEF771FC002008BD0000034A11689D
:101C6800034B1B780B441360704700BFF40400203B
:101C780000000020014B1868704700BFF4040020E2
:101C880038B50446FFF7F6FF0546B4F1FF3F02D02A
:101C9800044B1B781C44FFF7EDFF401BA042FAD30E
:101CA80038BD00BF0000002010B5044683680269F3
:101CB800134342691343C2691343016808689D4A84
:101CC800024013430B602268536823F44053E168D1
:101CD8000B435360A269236A1A4321688B6823F473
:101CE800306313438B602368934A934219D0934A15
:101CF800934229D0924A93423ED0924A934264D06A
:101D0800914A934276D0914A934200F08B80904A50
:101D1800934200F09F808F4A934200F0B3801023D3
:101D28003EE08D4BD3F8903003F00303032B09D822
:101D3800DFE803F00204C006012331E004232FE0AA
:101D480008232DE010232BE0834BD3F8903003F0C9
:101D58000C030C2B0ED8DFE803F0070D0D0D090D51
:101D68000D0DAF0D0D0D0B00002319E0042317E036
:101D7800082315E0102313E0774BD3F8903003F0D5
:101D88003003102B00F09A8006D9202B00F09880A1
:101D9800302B18D1082303E00BB9002300E01023EF
:101DA800E269B2F5004F00F0A180082B00F23C81F7
:101DB800DFE813F0FF0014011E013A0127013A0180
:101DC8003A013A0131011023EAE7634BD3F8903026
:101DD80003F0C003402B75D005D9802B74D0C02BDD
:101DE80006D10823DCE70BB90023D9E71023D7E78E
:101DF8001023D5E7584BD3F8903003F44073B3F56C
:101E0800807F63D007D9B3F5007F61D0B3F5407FF9
:101E180006D10823C4E70BB90023C1E71023BFE7A5
:101E28001023BDE74C4BD3F8903003F44063B3F56F
:101E3800806F4FD007D9B3F5006F4DD0B3F5406F21
:101E480006D10823ACE70BB90123A9E71023A7E7BC
:101E58001023A5E7404BD3F8903003F44053B3F573
:101E6800805F3BD007D9B3F5005F39D0B3F5405F49
:101E780006D1082394E70BB9002391E710238FE7D5
:101E880010238DE7344BD3F8903003F44043B3F577
:101E9800804F27D007D9B3F5004F25D0B3F5404F71
:101EA80006D108237CE70BB9002379E7102377E7ED
:101EB800102375E7022373E7022371E704236FE712
:101EC80002236DE704236BE7022369E7042367E72E
:101ED800022365E7042363E7022361E704235FE73E
:101EE80002235DE704235BE7022359E7082B5DD84B
:101EF800DFE803F005343F5C485C5C5C5300FFF7A7
:101F08001FFA6268530803EB4003B3FBF2F39BB27A
:101F18000020A3F110014FF6EF72914200F2878082
:101F28009AB222F00F02C3F3420313432268D3602C
:101F380050E000BFF369FFEF00100140004400408B
:101F480000480040004C0040005000400014014090
:101F580000780040007C004000380240FFF700FA9B
:101F68006268530803EB4003B3FBF2F39BB2002013
:101F7800CFE76268304B03EB5203B3FBF2F39BB23B
:101F88000020C6E7FFF7B6F86268530803EB400382
:101F9800B3FBF2F39BB20020BBE76268530803F57A
:101FA8008033B3FBF2F39BB20020B2E70120002399
:101FB800AFE7FFF7C5F9626800EB5203B3FBF2F332
:101FC8009BB20020A3F110014FF6EF72914230D876
:101FD8002268D36000232366636610BDFFF7C0F94B
:101FE800626800EB5203B3FBF2F39BB20020E9E70F
:101FF8006268124B03EB5203B3FBF2F39BB200206F
:10200800E0E7FFF777F8626800EB5203B3FBF2F3FF
:102018009BB20020D6E76268530803F50043B3FB80
:10202800F2F39BB20020CDE701200023CAE701208C
:10203800D0E70120CEE700BF0048E8010024F40003
:10204800436A13F0010F06D00268536823F4003383
:10205800816A0B435360436A13F0020F06D002688B
:10206800536823F48033C16A0B435360436A13F007
:10207800040F06D00268536823F48023016B0B43D6
:102088005360436A13F0080F06D00268536823F4BC
:102098000043416B0B435360436A13F0100F06D0A3
:1020A8000268936823F48053816B0B439360436AFF
:1020B80013F0200F06D00268936823F40053C16B15
:1020C8000B439360436A13F0400F0AD002685368C9
:1020D80023F48013016C0B435360036CB3F5801F2A
:1020E8000BD0436A13F0800F06D00268536823F4BC
:1020F8000023816C0B43536070470268536823F4D4
:10210800C003416C0B435360EBE72DE9F0410446F3
:102118000F4616469846069D2368DB6937EA03038F
:102128000CBF01230023B3423AD1B5F1FF3FF3D0EE
:10213800FFF7A0FDA0EB0800A8421FD8F5B123685F
:102148001A6812F0040FE7D0DA6912F4006FE3D0CE
:102158004FF400621A622268136823F4D073136084
:102168002268936823F00103936020236367A367C1
:10217800E367002384F87030032012E022681368B4
:1021880023F4D07313602268936823F001039360EB
:1021980020236367A367002384F87030032000E0DE
:1021A8000020BDE8F08130B583B004460023C36742
:1021B800FFF760FD054623681B6813F0080F0CD174
:1021C80023681B6813F0040F15D120236367A367E6
:1021D800002084F8700003B030BD6FF07E43009398
:1021E800034600224FF400112046FFF78EFF002817
:1021F800E6D00320EFE76FF07E4300932B460022E2
:102208004FF480012046FFF780FF0028DDD003202F
:10221800E1E768B310B50446436F03B3242363674B
:102228002268136823F0010313602046FFF73CFD82
:10223800012813D0636ABBB92268536823F490431A
:1022480053602268936823F02A0393602268136816
:1022580043F0010313602046FFF7A5FF10BD80F887
:102268007030FEF709FAD9E72046FFF7E9FEE3E701
:1022780001207047F0B58BB0002800F0918004462B
:10228800056890F8BD3323B3032384F8BD33EB6BA3
:1022980013F4807F01D100232361206800F0F2F855
:1022A800254655F8107B6E460FCD0FC60FCD0FC6CD
:1022B80095E8030086E80300231D0ECB384600F09E
:1022C800A3F858B1022384F8BD33012528460BB082
:1022D800F0BD80F8BC33FEF705FAD5E70021206889
:1022E80000F0D6F800236568AB4216D2D900C81AA8
:1022F80082002244012082F83D0082F83C30A2F896
:102308004230002082F83F0050649064CA1A91005D
:10231800214408650133DBB2E5E700239D4216D965
:10232800D800C11A8A002244002182F8FD1182F8DF
:10233800FC3182F8FF11C2F80412C2F80812C21A5E
:1023480090002044C0F810120133DBB2E6E72546BE
:1023580055F8107B6E460FCD0FC60FCD0FC695E80A
:10236800030086E80300231D0ECB384600F0D6F89C
:10237800054660B9002384F83830012384F8BD335A
:10238800636A012B08D0206800F098F99EE70223C1
:1023980084F8BD33012599E7204600F003F8F2E7F9
:1023A800012593E7024603680121C0F8FC130020C9
:1023B80082F8F4039A6942F000629A61596D024A00
:1023C8000A435A65704700BF030000100023013319
:1023D8000C4A934211D80269002AF8DA036943F0DB
:1023E8000103036100230133064A934207D80269B7
:1023F80012F0010FF7D10020704703207047032027
:10240800704700BF400D030084B010B5044603A810
:1024180080E80E00089B012B1DD1A36B23F48033A9
:10242800A363E268164B1340E360E36823F44013A8
:10243800E3600F9B012B09D02046FFF7C7FF069BDF
:10244800012B14D0BDE8104004B07047E36843F492
:102458008013E360F0E7E36843F04003E36020465D
:10246800FFF7B4FFA36B43F48033A363E7E7A368E4
:1024780043F00603A360A36843F02003A360E1E7E9
:10248800BFFFBDFF836823F001038360002070470E
:1024980008B5C36823F0C043C360012909D069B9EE
:1024A800C36843F08043C3603220FFF7E9FB002094
:1024B80008BDC36843F00053C360F5E70120F7E7A0
:1024C800890141F02001016100230133054A93424B
:1024D80005D8026912F0200FF7D1002070470320B9
:1024E800704700BF400D0300102303610023013330
:1024F800054A934205D8026912F0100FF7D100205F
:1025080070470320704700BF400D0300D0F8003823
:102518001943C0F8001800207047000084B0F8B5CF
:10252800044607A880E80E00254600230E2B07D88E
:1025380003F1400204EB8202002151600133F5E708
:10254800119B33BBD4F8043843F00203C4F80438B1
:10255800A36B23F40013A363236843F040032360B1
:10256800236843F0800323600023C4F8003E04F589
:102578000066D4F80038C4F800380C9B012B0DD045
:10258800032B1CD1099BABB900212046FFF7BEFFE6
:1025980019E0A36B43F40013A363E5E7099B23B990
:1025A80000212046FFF7B2FF0DE001212046FFF78A
:1025B800ADFF08E001212046FFF7A8FF03E0032153
:1025C8002046FFF7A3FF10212046FFF779FF0746B3
:1025D80000B101272046FFF787FF00B1012700233C
:1025E80033617361F3610AE0C3B94FF00060C2F868
:1025F800000900220A614FF67F328A600133079A88
:102608009A4210D905EB431202F51061D2F800097D
:102618000028E9DB0020C2F80009EAE74FF0904003
:10262800C2F80009E5E700230AE0C3B94FF00060EB
:10263800C2F8000B00220A614FF67F328A6001332C
:10264800079A9A4210D905EB431202F53061D2F885
:10265800000B0028E9DB0020C2F8000BEAE74FF086
:102668009040C2F8000BE5E7336923F480733361C7
:102678000023A3616FF0804363610A9B1BB9A369C0
:1026880043F01003A361A2690A4B1343A3610D9B96
:102698001BB1A36943F00803A361119B012B04D06C
:1026A8003846BDE8F84004B07047A269024B1343AE
:1026B800A361F5E700383C800400004008B5D0F875
:1026C800043843F00203C0F804380320FFF7D8FAAF
:1026D800002008BD054BD3F8882042F47002C3F8E7
:1026E80088204FF000629A60704700BF00ED00E05C
:1026F800DFF834D0002103E00C4B5B584350043121
:102708000B480C4B42189A42F6D30B4A02E00023BE
:1027180042F8043B094B9A42F9D3FFF7DBFF00F07C
:1027280011F8FDF7EFFE704700000820B42A0008F2
:10273800000000200C0000200C000020F8040020FD
:10274800FEE7000070B50D4D0D4C641BA41000266B
:10275800A64209D10B4D0C4C00F088F9641BA4105B
:102768000026A64205D170BD55F8043B98470136AE
:10277800EEE755F8043B98470136F2E7AC2A000823
:10278800AC2A0008AC2A0008B02A00080244034614
:10279800934200D1704703F8011BF9E72DE9F04790
:1027A800089E04468846002B40F085808A421546DC
:1027B80048D9B2FA82F24AB1C2F1200701FA02F30B
:1027C80020FA07F7954047EA030894404FEA154E68
:1027D800230CB8FBFEF71FFA85FC0EFB178843EAAB
:1027E800084307FB0CF1994209D9EB1807F1FF30B0
:1027F80080F0E380994240F2E080023F2B445B1A6C
:10280800A4B2B3FBFEF00EFB103344EA034400FB12
:102818000CFCA44509D92C1900F1FF3380F0CB80BA
:10282800A44540F2C88002382C4440EA0740A4EB93
:102838000C0400271EB1D4400023C6E900433946E2
:10284800BDE8F087002A53D0B2FA82F2002A40F09D
:10285800B680491B4FEA154E1FFA85F80127B1FBD0
:10286800FEFC230C0EFB1C1143EA014308FB0CF190
:10287800994207D9EB180CF1FF3002D2994200F2C5
:10288800EC808446591AA3B2B1FBFEF00EFB10147B
:1028980043EA044408FB00F8A04507D92C1900F1C5
:1028A800FF3302D2A04500F2DC801846A4EB0804EE
:1028B80040EA0C40BEE78B4208D9002E78D00027AA
:1028C800C6E9000138463946BDE8F087B3FA83F710
:1028D8007FB98B4202D3824200F2BD80841A61EB39
:1028E800030301209846002EA9D0C6E90048A6E7B0
:1028F800FFDEC7F12005BB4022FA05FC4CEA030CB9
:1029080001FA07F420FA05F821FA05F34FEA1C4EFC
:1029180048EA0404B3FBFEF9210C0EFB19331FFA35
:102928008CF841EA034309FB08FA9A4502FA07F2D0
:1029380000FA07F10BD91CEB030309F1FF3080F013
:1029480088809A4540F28580A9F102096344A3EB87
:102958000A03A4B2B3FBFEF00EFB103344EA0344AF
:1029680000FB08F8A04508D91CEB040400F1FF336C
:102978006BD2A04569D90238644440EA0940A4EB07
:102988000804A0FB02894C45C6464B4654D351D097
:10299800002E69D0B1EB0E0264EB030404FA05F5CE
:1029A80022FA07F3FC401D43C6E90054002746E716
:1029B8003746304643E7184637E707461FE7C2F170
:1029C800200320FA03F7954001FA02F021FA03F3F5
:1029D8004FEA154E3843010CB3FBFEF71FFA85F892
:1029E8000EFB173341EA034107FB08F38B4204FA55
:1029F80002F407D9691807F1FF3C28D28B4226D97F
:102A0800023F2944CB1A81B2B3FBFEF00EFB103310
:102A180041EA034100FB08F38B4207D9691800F12A
:102A2800FF3C10D28B420ED902382944C91A40EA19
:102A3800074714E74145ABD2B8EB020E69EB0C022D
:102A480001381346A4E76046F0E7184695E767465D
:102A5800D8E781467BE7384645E7ACF1020C2B44C2
:102A680010E702382C4421E73746E8E6F8B500BFFE
:102A7800F8BC08BC9E467047F8B500BFF8BC08BC57
:042A88009E467047AF
:102A8C000000000000000000010203040607080912
:082A9C00000000000102030428
:082AA40000FDFF7F01000000AE
:042AAC009502000887
:042AB0006D020008AB
:0C2AB40001000000100000000024F400ED
:04000005080026F9D0
:00000001FF
